S02B00005C55736572735C49766F5C4465736B746F705C4749425A5C496E666F726D6174696B5C4D3234325C11
S11300000C9434000C9451000C9451000C94510045
S11300100C9451000C9451000C9451000C94510018
S11300200C9451000C947A000C9451000C945100DF
S11300300C9451000C9451000C948C000C945100BD
S11300400C9451000C9451000C94C9000C94510070
S11300500C9451000C9451000C9451000C945100D8
S11300600C9451000C94510011241FBECFEFD8E022
S1130070DEBFCDBF11E0A0E0B1E0E0ECF2E002C0F1
S113008005900D92A030B107D9F721E0A0E0B1E0CE
S113009001C01D92A332B207E1F70E946B000C94D9
S11300A05E010C94000088E184B988E085B980EC95
S11300B08AB9089582E084BD95E095BD91E597BD28
S11300C0E0EBF0E0108297E0918380936E0081E092
S11300D080937000089560E970ED83E090E00E94E1
S11300E0AE0081E090E00E9436010E9453000E941D
S11300F05A00FFCF1F920F920FB60F9211248F93C5
S11301002B9A8AE18A95F1F700C02B988F910F9072
S11301100FBE0F901F9018951F920F920FB60F925B
S113012011248F932B9A8AE18A95F1F700C02B98BA
S11301308F910F900FBE0F901F901895F894809197
S113014002018F5F80930201089580910201815022
S113015080930201811101C0789408959B01AC0140
S113016060E472E48FE090E00E943C012150310988
S1130170E0ECF0E03583248388E181838EE08283A0
S11301800895E0ECF0E0908195FFFDCF8093C600E8
S113019008951F920F920FB60F9211242F938F93ED
S11301A09F93AF93BF93EF93FF93E0ECF0E019C0FC
S11301B026818091010190E001968F7190789923B6
S11301C024F40197806E9F6F019690910001891726
S11301D041F0A0910101B0E0AD5FBE4F2C9380933C
S11301E001018081882324F3FF91EF91BF91AF91A6
S11301F09F918F912F910F900FBE0F901F90189584
S1130200CF93C82F892F0E94C1008C2F0E94C10058
S1130210CF910895EF92FF920F931F93CF93DF93A3
S1130220EC01E62EF72E142F0E949E0085EA0E9410
S1130230C100812F886A0E94C100CE010E94000182
S1130240CFEFC10F11164CF40E2D1F2DF801819123
S11302508F010E94C100C150C8F70E94A500DF9120
S1130260CF911F910F91FF90EF90089540E060E0CF
S113027070E00E940A010895A1E21A2EAA1BBB1B7A
S1130280FD010DC0AA1FBB1FEE1FFF1FA217B3075E
S1130290E407F50720F0A21BB30BE40BF50B661F74
S11302A0771F881F991F1A9469F760957095809538
S11302B090959B01AC01BD01CF010895F894FFCF47
S9030000FC
